S01000004143585F477261642E737265635B
S113000071C000008EC000008CC000008AC00000D7
S113001088C0000086C0000084C0000082C00000C8
S113002080C000007EC000007CC000007AC00000D8
S113003078C0000076C0000074C0000072C00000E8
S113004070C000006EC000006CC000006AC00000F8
S113005068C0000066C0000064C0000062C0000008
S113006060C000005EC000005CC000005AC0000018
S113007058C0000056C0000054C0000052C0000028
S113008050C000004EC000004CC000004AC0000038
S113009048C0000046C0000044C0000042C0000048
S11300A040C000003EC000003CC000003AC0000058
S11300B038C0000036C0000034C0000032C0000068
S11300C030C000002EC000002CC000002AC0000078
S11300D028C0000026C0000024C0000022C0000088
S11300E020C0000011241FBECFEFD1E2DEBFCDBF80
S11300F000E00CBF12E0A0E0B2E0EAE8F2E000E0C9
S11301000BBF02C007900D92A030B107D9F722E1CE
S1130110A0E0B2E001C01D92A530B207E1F737D0EC
S1130120B2C06ECF089508958EEF8093020A1092A4
S1130130010A10920312E1E0F2E081E192E01192EF
S11301401192E817F907D9F71092000281E0809321
S1130150041208958AEA8093030A8093030B809320
S1130160030C8093030D8093030E8093030F8093FD
S11301700310809303110895F894D6DFEBDF8DB755
S11301809EB782E09BE09EBF8DBF78940895279A26
S113019026E030E048E050E060E070E080E03AD0F3
S11301A0EBDFC0DFFFCF813071F028F0823099F0AF
S11301B08330C9F020C08091C0008823FCF4809172
S11301C0C60090E008958091C8008823D4F48091FB
S11301D0CE0090E008958091D0008823ACF4809103
S11301E0D60090E0089580913001882384F48091B2
S11301F0360190E008958FEF9FEF08958FEF9FEF02
S113020008958FEF9FEF08958FEF9FEF08958FEF7D
S11302109FEF0895813091F028F08230D9F0833037
S113022029F12FC0E1ECF0E0908198619083209354
S1130230C2005093C5004093C40023C02093CA0059
S1130240E9ECF0E09081986190835093CD00409365
S1130250CC0017C02093D200E1EDF0E090819861CA
S113026090835093D5004093D4000BC02093320167
S1130270E1E3F1E0908198619083509335014093DC
S10D0280340191CF0895F894FFCFE4
S9030000FC
