:1000000071C000008EC000008CC000008AC00000DB
:1000100088C0000086C0000084C0000082C00000CC
:1000200080C000007EC000007CC000007AC00000DC
:1000300078C0000076C0000074C0000072C00000EC
:1000400070C0000016C200006CC000006AC0000052
:1000500068C0000066C0000064C0000062C000000C
:1000600060C000005EC000005CC000005AC000001C
:1000700058C0000056C0000054C0000052C000002C
:1000800050C000004EC000004CC000004AC000003C
:1000900048C0000046C0000044C0000042C000004C
:1000A00040C000003EC000003CC000003AC000005C
:1000B00038C0000036C0000034C0000032C000006C
:1000C00030C000002EC000002CC000002AC000007C
:1000D00028C0000026C0000024C0000022C000008C
:1000E00020C0000011241FBECFEFD1E2DEBFCDBF84
:1000F00000E00CBF12E0A0E0B2E0E0E6F5E000E0D6
:100100000BBF02C007900D92A032B107D9F72AE0C9
:10011000A0E2B2E001C01D92A533B207E1F708D218
:100120001DC26ECF1F922F923F924F925F926F929D
:100130007F928F929F92AF92BF92CF92DF92EF9277
:10014000FF920F931F93CF93DF93E0912002F0E093
:10015000EE0FFF1FEE0FFF1FE040FE4F8DB79EB763
:1001600081939083E3E2F2E080E090912002F90F26
:1001700080818A3A09F0F6D0209120023091220243
:10018000409121025091230A542B532B2F5F27704B
:10019000822F25D058235817C9F3E22FF0E0EE0F35
:1001A000FF1FEE0FFF1FE040FE4F81919081F894FA
:1001B0008DBF9EBF7894DF91CF911F910F91FF90DB
:1001C000EF90DF90CF90BF90AF909F908F907F90F7
:1001D0006F905F904F903F902F901F9008958F5F8A
:1001E00091E08A95813010F0990FFBCF892F90E034
:1001F00008958EEF80932202109221021092230A1A
:1002000080E090E0FC01EE0FFF1FEC5DF54F1182E6
:100210001082019688309105A9F71092200281E0A2
:100220008093340A08958AEA8093230280932303FB
:1002300080932304809323058093230680932307D0
:10024000809323088093230908950F931F93CF93DE
:10025000DF9300D0CDB7DEB70DB71EB7F894C9DF76
:10026000E2DFF8018285898381858A8380858B839B
:1002700082E293E09EBF8DBFEDB7FEB78981808398
:100280008A81DF0111978C938B81329780838DB7A0
:100290009EB70A979EBF8DBF78940F900F900F90D6
:1002A000DF91CF911F910F9108959C01F894809157
:1002B0002002E82FF0E0EE0FFF1FEC5DF54F3183D9
:1002C00020838DDF9091230A892B8093230A2ADFD4
:1002D000789408950F931F93CF93DF9300D0CDB7F9
:1002E000DEB7F8941B821A8219827A836983E82F19
:1002F000F0E0EE0FFF1FEE0FFF1F8F0100501E4FAB
:10030000F801228133819981D9019C939A81B901A5
:1003100061507109FB0190839B8112979C93265138
:100320003109F80131832083242F30E0B90102C064
:10033000660F771F8A95E2F7CB01442329F0809559
:1003400090912202892303C090912202892B8093ED
:10035000220278940F900F900F90DF91CF911F9110
:100360000F910895279A23E030E04FEF81EE94E05B
:10037000415080409040E1F700C000002F9A4FEFBD
:1003800081EE94E0415080409040E1F700C00000D1
:1003900085B1805885B92150310939F723E030E023
:1003A0004FEF85EA9EE0415080409040E1F700C069
:1003B00000002F9A4FEF85EA9EE041508040904028
:1003C000E1F700C0000085B1805885B9215031099E
:1003D00039F723E030E04FEF81EE94E04150804068
:1003E0009040E1F700C000002F9A4FEF81EE94E0BB
:1003F000415080409040E1F700C0000085B1805836
:1004000085B92150310939F72FEF45EA8EE02150A7
:1004100040408040E1F700C00000A5CF109264008A
:100420001092850010928400F89410928000E1E808
:10043000F0E010828FE390E0909387008093860035
:10044000909389008093880084E080838081886015
:100450008083808181608083808184608083EFE6F7
:10046000F0E0808182608083789480E884B92F9A5C
:1004700008951F920F920FB60F9211240BB60F9290
:100480001F932F933F934F935F936F937F938F931C
:100490009F93AF93BF93CF93DF93EF93FF93C0E00E
:1004A000D0E08C2F9CDEFE01EE0FFF1FEC5DF54FC0
:1004B00020813181232BD1F09091230A8923B1F03F
:1004C000FE01EE0FFF1FEC5DF54F808191810197DA
:1004D0009183808380819181892B41F48C2F7FDEF1
:1004E00080959091230A89238093230A2196C8300E
:1004F000D105B9F6FF91EF91DF91CF91BF91AF9107
:100500009F918F917F916F915F914F913F912F912B
:100510001F910F900BBE0F900FBE0F901F9018955C
:1005200081E090E0C2DEFCCF82E090E0BEDEFCCF56
:1005300080E884B92F9A80B3836080BB86DE6EDF4B
:1005400041E060E972E080E0C5DE41E064E972E02C
:1005500081E0C0DE81B3836081BBFFCFF894FFCF21
:100560002203220322042204220522052206220657
:10057000220722072208220822092209220A220A27
:00000001FF
