:1000000071C000008EC000008CC000008AC00000DB
:1000100088C0000086C0000084C0000082C00000CC
:1000200080C000007EC000007CC000007AC00000DC
:1000300078C0000076C0000074C0000072C00000EC
:1000400070C00000E1C100006CC000006AC0000088
:1000500068C0000066C0000064C0000062C000000C
:1000600060C000005EC000005CC000005AC000001C
:1000700058C0000056C0000054C0000052C000002C
:1000800050C000004EC000004CC000004AC000003C
:1000900048C0000046C0000044C0000042C000004C
:1000A00040C000003EC000003CC000003AC000005C
:1000B00038C0000036C0000034C0000032C000006C
:1000C00030C000002EC000002CC000002AC000007C
:1000D00028C0000026C0000024C0000022C000008C
:1000E00020C0000011241FBECFEFD1E2DEBFCDBF84
:1000F00000E00CBF12E0A0E0B2E0EEE2F5E000E0CC
:100100000BBF02C007900D92A032B107D9F72AE0C9
:10011000A0E2B2E001C01D92A933B207E1F7F0D12D
:1001200004C26ECF1F922F923F924F925F926F92B6
:100130007F928F929F92AF92BF92CF92DF92EF9277
:10014000FF920F931F93CF93DF93E0912402F0E08F
:10015000EE0FFF1FEE0FFF1FE040FE4F8DB79EB763
:1001600081939083E7E2F2E080E090912402F90F1E
:1001700080818A3A09F0ECD0209124023091260245
:10018000409125025091270A542B532B2F5F277043
:10019000822F27D058235817C9F320932402E22F27
:1001A000F0E0EE0FFF1FEE0FFF1FE040FE4F8191CA
:1001B0009081F8948DBF9EBF7894DF91CF911F916D
:1001C0000F91FF90EF90DF90CF90BF90AF909F90F6
:1001D0008F907F906F905F904F903F902F901F90E7
:1001E00008958F5F91E08A95813010F0990FFBCFD1
:1001F000892F90E008958EEF8093260210922502B9
:100200001092270A80E090E0FC01EE0FFF1FE85DEE
:10021000F54F11821082019688309105A9F710924E
:10022000240281E08093380A08958AEA80932702A5
:1002300080932703809327048093270580932706C4
:1002400080932707809327088093270908950F93A9
:100250001F93CF93DF9300D0CDB7DEB70DB71EB796
:10026000F894C9DFE2DFF8018285898381858A837A
:1002700080858B8386E293E09EBF8DBFEDB7FEB78E
:10028000898180838A81DF0111978C938B813297DA
:1002900080838DB79EB70A979EBF8DBF78940F90CD
:1002A0000F900F90DF91CF911F910F910895EF92D2
:1002B000FF920F931F93CF93DF9300D0CDB7DEB79C
:1002C000182F7B01042FF894809324028ADF8093F7
:1002D000380A1B821A821982FA82E982E12FF0E041
:1002E000EE0FFF1FEE0FFF1FBF0160507E4FFB019F
:1002F000828193812981DC012C934A819C012150C8
:100300003109F90140832B8112972C934697FB0109
:1003100091838083802F90E002C0880F991F1A95E7
:10032000E2F7002329F0809590912602892303C0EB
:1003300090912602892B8093260278940F900F903B
:100340000F90DF91CF911F910F91FF90EF90089543
:10035000279A23E030E04FEF81EE94E04150804057
:100360009040E1F700C000002F9A4FEF81EE94E03B
:10037000415080409040E1F700C0000085B18058B6
:1003800085B92150310939F723E030E04FEF85EA94
:100390009EE0415080409040E1F700C000002F9A5D
:1003A0004FEF85EA9EE0415080409040E1F700C069
:1003B000000085B1805885B92150310939F723E013
:1003C00030E04FEF81EE94E0415080409040E1F703
:1003D00000C000002F9A4FEF81EE94E04150804022
:1003E0009040E1F700C0000085B1805885B92150E8
:1003F000310939F72FEF45EA8EE021504040804027
:10040000E1F700C00000A5CF1F920F920FB60F9228
:1004100011240BB60F921F932F933F934F935F932B
:100420006F937F938F939F93AF93BF93CF93DF93FC
:10043000EF93FF938091200290912102A0912202DC
:10044000B09123020196A11DB11D809320029093CB
:100450002102A0932202B0932302C0E0D0E08C2FAF
:10046000C0DEFE01EE0FFF1FE85DF54F20813181F8
:10047000232BE9F09091270A8923C9F02FB7F8942C
:10048000FE01EE0FFF1FE85DF54F8081918101971E
:10049000918380832FBF80819181892B41F48C2FA0
:1004A000A0DE80959091270A89238093270A2196C0
:1004B000C830D105A1F6FF91EF91DF91CF91BF91A7
:1004C000AF919F918F917F916F915F914F913F91EC
:1004D0002F911F910F900BBE0F900FBE0F901F908A
:1004E0001895CF93DF931F921F92CDB7DEB71A8274
:1004F000198289819A8101969A83898313DEF9CFC3
:10050000CF93DF931F921F92CDB7DEB71A82198265
:100510009EDE41E061E772E081E0C9DE89819A8177
:0E05200001969A838983FEDDF9CFF894FFCF10
:10052E002603260326042604260526052606260669
:10053E00260726072608260826092609260A260A39
:00000001FF
