:1000000071C000008EC000008CC000008AC00000DB
:1000100088C0000086C0000084C0000082C00000CC
:1000200080C000007EC000007CC000007AC00000DC
:1000300078C0000076C0000074C0000072C00000EC
:1000400070C000006EC000006CC000006AC00000FC
:1000500068C0000066C0000064C0000062C000000C
:1000600060C000005EC000005CC000005AC000001C
:1000700058C0000056C0000054C0000052C000002C
:1000800050C000004EC000004CC000004AC000003C
:1000900048C0000046C0000044C0000042C000004C
:1000A00040C000003EC000003CC000003AC000005C
:1000B00038C0000036C0000034C0000032C000006C
:1000C00030C000002EC000002CC000002AC000007C
:1000D00028C0000026C0000024C0000022C000008C
:1000E00020C0000011241FBECFEFD1E2DEBFCDBF84
:1000F00000E00CBF12E0A0E0B2E0E8E7F3E000E0CF
:100100000BBF02C007900D92A032B107D9F722E1D0
:10011000A0E2B2E001C01D92A532B207E1F71AD108
:1001200029C16ECF2F923F924F925F926F927F9232
:100130008F929F92AF92BF92CF92DF92EF92FF92F7
:100140000F931F93E0912002F0E0EE0FFF1FEE0FE0
:10015000FF1FE050FE5F8EB79DB781939083E3E26F
:10016000FAE080E090912002F90F80818A3A09F04C
:1001700095D0209120022F5F27703091220A409164
:10018000210A50912312542B532B822F22D0582313
:10019000581789F3E22FF0E0EE0FFF1FEE0FFF1F5D
:1001A000E050FE5F81919081F8948EBF9DBF78945E
:1001B0001F910F91FF90EF90DF90CF90BF90AF9085
:1001C0009F908F907F906F905F904F903F902F9077
:1001D0000895811D91E08A95813010F0990FFBCF31
:1001E000892F90E002C090E080E008958EEF809328
:1001F000220A1092210A10922312E1E2F2E081E336
:1002000092E011921192E817F907D9F710922002A3
:1002100081E08093241208958AEA8093230A8093D0
:10022000230B8093230C8093230D8093230E8093C4
:10023000230F809323108093231108950F931F930E
:10024000CF93DF9300D0CDB7DEB70DB71EB7F894CC
:10025000CDDFE2DFF8018085898381858A8382850D
:100260008B8382E29BE09EBF8DBFEDB7FEB78B8193
:1002700080838A81DF0111978C93898132978083F3
:100280008DB79EB70A979EBF8DBF78940F900F9041
:100290000F90DF91CF911F910F910895279A23E03E
:1002A00030E04FEF81EE94E0415080409040E1F724
:1002B00000C000002F9A4FEF81EE94E04150804043
:1002C0009040E1F700C0000085B1805885B9215009
:1002D000310939F723E030E04FEF85EA9EE04150E5
:1002E00080409040E1F700C000002F9A4FEF85EA70
:1002F0009EE0415080409040E1F700C0000085B191
:10030000805885B92150310939F723E030E04FEFAB
:1003100081EE94E0415080409040E1F700C0000041
:100320002F9A4FEF81EE94E0415080409040E1F7EA
:1003300000C0000085B1805885B92150310939F7D6
:100340002FEF45EA8EE0215040408040E1F700C0A9
:100350000000A5CF279A72DFE5DE85B1805885B908
:100360002FEF89E698E1215080409040E1F700C0EE
:080370000000F2CFF894FFCF6A
:10037800220B220B220C220C220D220D220E220E01
:10038800220F220F221022102211221122122212D1
:00000001FF
